{
  "contractName": "VintageCar",
  "abi": [
    {
      "inputs": [
        {
          "internalType": "string",
          "name": "name",
          "type": "string"
        },
        {
          "internalType": "string",
          "name": "symbol",
          "type": "string"
        }
      ],
      "stateMutability": "nonpayable",
      "type": "constructor"
    },
    {
      "anonymous": false,
      "inputs": [
        {
          "indexed": true,
          "internalType": "address",
          "name": "_owner",
          "type": "address"
        },
        {
          "indexed": true,
          "internalType": "address",
          "name": "_approved",
          "type": "address"
        },
        {
          "indexed": true,
          "internalType": "uint256",
          "name": "_tokenId",
          "type": "uint256"
        }
      ],
      "name": "Approval",
      "type": "event"
    },
    {
      "anonymous": false,
      "inputs": [
        {
          "indexed": true,
          "internalType": "address",
          "name": "_owner",
          "type": "address"
        },
        {
          "indexed": true,
          "internalType": "address",
          "name": "_operator",
          "type": "address"
        },
        {
          "indexed": false,
          "internalType": "bool",
          "name": "_approved",
          "type": "bool"
        }
      ],
      "name": "ApprovalForAll",
      "type": "event"
    },
    {
      "anonymous": false,
      "inputs": [
        {
          "indexed": true,
          "internalType": "address",
          "name": "_from",
          "type": "address"
        },
        {
          "indexed": true,
          "internalType": "address",
          "name": "_to",
          "type": "address"
        },
        {
          "indexed": true,
          "internalType": "uint256",
          "name": "_tokenId",
          "type": "uint256"
        }
      ],
      "name": "Transfer",
      "type": "event"
    },
    {
      "inputs": [],
      "name": "name",
      "outputs": [
        {
          "internalType": "string",
          "name": "",
          "type": "string"
        }
      ],
      "stateMutability": "view",
      "type": "function"
    },
    {
      "inputs": [],
      "name": "symbol",
      "outputs": [
        {
          "internalType": "string",
          "name": "",
          "type": "string"
        }
      ],
      "stateMutability": "view",
      "type": "function"
    },
    {
      "inputs": [
        {
          "internalType": "address",
          "name": "_owner",
          "type": "address"
        }
      ],
      "name": "balanceOf",
      "outputs": [
        {
          "internalType": "uint256",
          "name": "",
          "type": "uint256"
        }
      ],
      "stateMutability": "view",
      "type": "function"
    },
    {
      "inputs": [
        {
          "internalType": "uint256",
          "name": "_tokenId",
          "type": "uint256"
        }
      ],
      "name": "ownerOf",
      "outputs": [
        {
          "internalType": "address",
          "name": "",
          "type": "address"
        }
      ],
      "stateMutability": "view",
      "type": "function"
    },
    {
      "inputs": [
        {
          "internalType": "address",
          "name": "_approved",
          "type": "address"
        },
        {
          "internalType": "uint256",
          "name": "_tokenId",
          "type": "uint256"
        }
      ],
      "name": "approve",
      "outputs": [],
      "stateMutability": "payable",
      "type": "function"
    },
    {
      "inputs": [
        {
          "internalType": "address",
          "name": "_operator",
          "type": "address"
        },
        {
          "internalType": "bool",
          "name": "_approved",
          "type": "bool"
        }
      ],
      "name": "setApprovalForAll",
      "outputs": [],
      "stateMutability": "nonpayable",
      "type": "function"
    },
    {
      "inputs": [
        {
          "internalType": "uint256",
          "name": "_tokenId",
          "type": "uint256"
        }
      ],
      "name": "getApproved",
      "outputs": [
        {
          "internalType": "address",
          "name": "",
          "type": "address"
        }
      ],
      "stateMutability": "view",
      "type": "function"
    },
    {
      "inputs": [
        {
          "internalType": "address",
          "name": "_owner",
          "type": "address"
        },
        {
          "internalType": "address",
          "name": "_operator",
          "type": "address"
        }
      ],
      "name": "isApprovedForAll",
      "outputs": [
        {
          "internalType": "bool",
          "name": "",
          "type": "bool"
        }
      ],
      "stateMutability": "view",
      "type": "function"
    },
    {
      "inputs": [
        {
          "internalType": "address",
          "name": "_from",
          "type": "address"
        },
        {
          "internalType": "address",
          "name": "_to",
          "type": "address"
        },
        {
          "internalType": "uint256",
          "name": "_tokenId",
          "type": "uint256"
        }
      ],
      "name": "transferFrom",
      "outputs": [],
      "stateMutability": "payable",
      "type": "function"
    },
    {
      "inputs": [],
      "name": "tokenIncrement",
      "outputs": [
        {
          "internalType": "uint256",
          "name": "",
          "type": "uint256"
        }
      ],
      "stateMutability": "view",
      "type": "function"
    },
    {
      "inputs": [
        {
          "internalType": "address",
          "name": "_to",
          "type": "address"
        },
        {
          "internalType": "uint256",
          "name": "_tokenId",
          "type": "uint256"
        }
      ],
      "name": "mint",
      "outputs": [],
      "stateMutability": "nonpayable",
      "type": "function"
    }
  ],
  "bytecode": "0x60806040523480156200001157600080fd5b5060405162001c5d38038062001c5d833981810160405260408110156200003757600080fd5b81019080805160405193929190846401000000008211156200005857600080fd5b838201915060208201858111156200006f57600080fd5b82518660018202830111640100000000821117156200008d57600080fd5b8083526020830192505050908051906020019080838360005b83811015620000c3578082015181840152602081019050620000a6565b50505050905090810190601f168015620000f15780820380516001836020036101000a031916815260200191505b50604052602001805160405193929190846401000000008211156200011557600080fd5b838201915060208201858111156200012c57600080fd5b82518660018202830111640100000000821117156200014a57600080fd5b8083526020830192505050908051906020019080838360005b838110156200018057808201518184015260208101905062000163565b50505050905090810190601f168015620001ae5780820380516001836020036101000a031916815260200191505b5060405250505033600460006101000a81548173ffffffffffffffffffffffffffffffffffffffff021916908373ffffffffffffffffffffffffffffffffffffffff16021790555081600590805190602001906200020e92919062000238565b5080600690805190602001906200022792919062000238565b5060006007819055505050620002e7565b828054600181600116156101000203166002900490600052602060002090601f016020900481019282601f106200027b57805160ff1916838001178555620002ac565b82800160010185558215620002ac579182015b82811115620002ab5782518255916020019190600101906200028e565b5b509050620002bb9190620002bf565b5090565b620002e491905b80821115620002e0576000816000905550600101620002c6565b5090565b90565b61196680620002f76000396000f3fe60806040526004361061009c5760003560e01c80636352211e116100645780636352211e146102c357806370a082311461033e57806395d89b41146103a3578063a22cb46514610433578063b45999fc14610490578063e985e9c5146104bb5761009c565b806306fdde03146100a1578063081812fc14610131578063095ea7b3146101ac57806323b872dd146101fa57806340c10f1914610268575b600080fd5b3480156100ad57600080fd5b506100b6610544565b6040518080602001828103825283818151815260200191508051906020019080838360005b838110156100f65780820151818401526020810190506100db565b50505050905090810190601f1680156101235780820380516001836020036101000a031916815260200191505b509250505060405180910390f35b34801561013d57600080fd5b5061016a6004803603602081101561015457600080fd5b81019080803590602001909291905050506105e6565b604051808273ffffffffffffffffffffffffffffffffffffffff1673ffffffffffffffffffffffffffffffffffffffff16815260200191505060405180910390f35b6101f8600480360360408110156101c257600080fd5b81019080803573ffffffffffffffffffffffffffffffffffffffff169060200190929190803590602001909291905050506106f7565b005b6102666004803603606081101561021057600080fd5b81019080803573ffffffffffffffffffffffffffffffffffffffff169060200190929190803573ffffffffffffffffffffffffffffffffffffffff16906020019092919080359060200190929190505050610705565b005b34801561027457600080fd5b506102c16004803603604081101561028b57600080fd5b81019080803573ffffffffffffffffffffffffffffffffffffffff16906020019092919080359060200190929190505050610715565b005b3480156102cf57600080fd5b506102fc600480360360208110156102e657600080fd5b8101908080359060200190929190505050610a95565b604051808273ffffffffffffffffffffffffffffffffffffffff1673ffffffffffffffffffffffffffffffffffffffff16815260200191505060405180910390f35b34801561034a57600080fd5b5061038d6004803603602081101561036157600080fd5b81019080803573ffffffffffffffffffffffffffffffffffffffff169060200190929190505050610b79565b6040518082815260200191505060405180910390f35b3480156103af57600080fd5b506103b8610bc2565b6040518080602001828103825283818151815260200191508051906020019080838360005b838110156103f85780820151818401526020810190506103dd565b50505050905090810190601f1680156104255780820380516001836020036101000a031916815260200191505b509250505060405180910390f35b34801561043f57600080fd5b5061048e6004803603604081101561045657600080fd5b81019080803573ffffffffffffffffffffffffffffffffffffffff169060200190929190803515159060200190929190505050610c64565b005b34801561049c57600080fd5b506104a5610c72565b6040518082815260200191505060405180910390f35b3480156104c757600080fd5b5061052a600480360360408110156104de57600080fd5b81019080803573ffffffffffffffffffffffffffffffffffffffff169060200190929190803573ffffffffffffffffffffffffffffffffffffffff169060200190929190505050610c7c565b604051808215151515815260200191505060405180910390f35b606060058054600181600116156101000203166002900480601f0160208091040260200160405190810160405280929190818152602001828054600181600116156101000203166002900480156105dc5780601f106105b1576101008083540402835291602001916105dc565b820191906000526020600020905b8154815290600101906020018083116105bf57829003601f168201915b5050505050905090565b60008073ffffffffffffffffffffffffffffffffffffffff1660008084815260200190815260200160002060009054906101000a900473ffffffffffffffffffffffffffffffffffffffff1673ffffffffffffffffffffffffffffffffffffffff1614156106bc576040517f08c379a000000000000000000000000000000000000000000000000000000000815260040180806020018281038252601e8152602001807f56696e746167654361723a20746f6b656e206973206e6f742076616c6964000081525060200191505060405180910390fd5b6002600083815260200190815260200160002060009054906101000a900473ffffffffffffffffffffffffffffffffffffffff169050919050565b6107018282610d10565b5050565b610710838383611036565b505050565b600460009054906101000a900473ffffffffffffffffffffffffffffffffffffffff1673ffffffffffffffffffffffffffffffffffffffff163373ffffffffffffffffffffffffffffffffffffffff16146107d8576040517f08c379a00000000000000000000000000000000000000000000000000000000081526004018080602001828103825260168152602001807f56696e746167654361723a204f6e6c79206f776e65720000000000000000000081525060200191505060405180910390fd5b600073ffffffffffffffffffffffffffffffffffffffff168273ffffffffffffffffffffffffffffffffffffffff16141561085e576040517f08c379a000000000000000000000000000000000000000000000000000000000815260040180806020018281038252602b8152602001806118df602b913960400191505060405180910390fd5b600160008373ffffffffffffffffffffffffffffffffffffffff1673ffffffffffffffffffffffffffffffffffffffff1681526020019081526020016000205460018060008573ffffffffffffffffffffffffffffffffffffffff1673ffffffffffffffffffffffffffffffffffffffff168152602001908152602001600020540111610953576040517f08c379a00000000000000000000000000000000000000000000000000000000081526004018080602001828103825260148152602001807f56696e746167654361723a204f766572666c6f7700000000000000000000000081525060200191505060405180910390fd5b8160008083815260200190815260200160002060006101000a81548173ffffffffffffffffffffffffffffffffffffffff021916908373ffffffffffffffffffffffffffffffffffffffff16021790555060018060008473ffffffffffffffffffffffffffffffffffffffff1673ffffffffffffffffffffffffffffffffffffffff1681526020019081526020016000205401600160008473ffffffffffffffffffffffffffffffffffffffff1673ffffffffffffffffffffffffffffffffffffffff16815260200190815260200160002081905550600160075401600781905550808273ffffffffffffffffffffffffffffffffffffffff16600073ffffffffffffffffffffffffffffffffffffffff167fddf252ad1be2c89b69c2b068fc378daa952ba7f163c4a11628f55a4df523b3ef60405160405180910390a45050565b60008060008084815260200190815260200160002060009054906101000a900473ffffffffffffffffffffffffffffffffffffffff169050600073ffffffffffffffffffffffffffffffffffffffff168173ffffffffffffffffffffffffffffffffffffffff161415610b70576040517f08c379a00000000000000000000000000000000000000000000000000000000081526004018080602001828103825260198152602001807f56696e746167654361723a20696e76616c696420746f6b656e0000000000000081525060200191505060405180910390fd5b80915050919050565b6000600160008373ffffffffffffffffffffffffffffffffffffffff1673ffffffffffffffffffffffffffffffffffffffff168152602001908152602001600020549050919050565b606060068054600181600116156101000203166002900480601f016020809104026020016040519081016040528092919081815260200182805460018160011615610100020316600290048015610c5a5780601f10610c2f57610100808354040283529160200191610c5a565b820191906000526020600020905b815481529060010190602001808311610c3d57829003601f168201915b5050505050905090565b610c6e8282611725565b5050565b6000600754905090565b6000600360008473ffffffffffffffffffffffffffffffffffffffff1673ffffffffffffffffffffffffffffffffffffffff16815260200190815260200160002060008373ffffffffffffffffffffffffffffffffffffffff1673ffffffffffffffffffffffffffffffffffffffff16815260200190815260200160002060009054906101000a900460ff16905092915050565b600080600083815260200190815260200160002060009054906101000a900473ffffffffffffffffffffffffffffffffffffffff169050600073ffffffffffffffffffffffffffffffffffffffff168173ffffffffffffffffffffffffffffffffffffffff161415610dea576040517f08c379a000000000000000000000000000000000000000000000000000000000815260040180806020018281038252601e8152602001807f56696e746167654361723a20746f6b656e206973206e6f742076616c6964000081525060200191505060405180910390fd5b8073ffffffffffffffffffffffffffffffffffffffff163373ffffffffffffffffffffffffffffffffffffffff161480610eaa5750600360008273ffffffffffffffffffffffffffffffffffffffff1673ffffffffffffffffffffffffffffffffffffffff16815260200190815260200160002060003373ffffffffffffffffffffffffffffffffffffffff1673ffffffffffffffffffffffffffffffffffffffff16815260200190815260200160002060009054906101000a900460ff165b610eff576040517f08c379a000000000000000000000000000000000000000000000000000000000815260040180806020018281038252602a81526020018061185b602a913960400191505060405180910390fd5b8073ffffffffffffffffffffffffffffffffffffffff168373ffffffffffffffffffffffffffffffffffffffff161415610f84576040517f08c379a000000000000000000000000000000000000000000000000000000000815260040180806020018281038252602781526020018061190a6027913960400191505060405180910390fd5b826002600084815260200190815260200160002060006101000a81548173ffffffffffffffffffffffffffffffffffffffff021916908373ffffffffffffffffffffffffffffffffffffffff160217905550818373ffffffffffffffffffffffffffffffffffffffff168273ffffffffffffffffffffffffffffffffffffffff167f8c5be1e5ebec7d5bd14f71427d1e84f3dd0314c0f7b2291e5b200ac8c7c3b92560405160405180910390a4505050565b600080600083815260200190815260200160002060009054906101000a900473ffffffffffffffffffffffffffffffffffffffff169050600073ffffffffffffffffffffffffffffffffffffffff168173ffffffffffffffffffffffffffffffffffffffff161415611110576040517f08c379a00000000000000000000000000000000000000000000000000000000081526004018080602001828103825260198152602001807f56696e746167654361723a20696e76616c696420746f6b656e0000000000000081525060200191505060405180910390fd5b8073ffffffffffffffffffffffffffffffffffffffff163373ffffffffffffffffffffffffffffffffffffffff1614806111d05750600360008273ffffffffffffffffffffffffffffffffffffffff1673ffffffffffffffffffffffffffffffffffffffff16815260200190815260200160002060003373ffffffffffffffffffffffffffffffffffffffff1673ffffffffffffffffffffffffffffffffffffffff16815260200190815260200160002060009054906101000a900460ff165b8061123957503373ffffffffffffffffffffffffffffffffffffffff166002600084815260200190815260200160002060009054906101000a900473ffffffffffffffffffffffffffffffffffffffff1673ffffffffffffffffffffffffffffffffffffffff16145b61128e576040517f08c379a00000000000000000000000000000000000000000000000000000000081526004018080602001828103825260348152602001806118276034913960400191505060405180910390fd5b60008083815260200190815260200160002060009054906101000a900473ffffffffffffffffffffffffffffffffffffffff1673ffffffffffffffffffffffffffffffffffffffff168473ffffffffffffffffffffffffffffffffffffffff1614611344576040517f08c379a000000000000000000000000000000000000000000000000000000000815260040180806020018281038252602e815260200180611885602e913960400191505060405180910390fd5b600073ffffffffffffffffffffffffffffffffffffffff168373ffffffffffffffffffffffffffffffffffffffff1614156113ca576040517f08c379a000000000000000000000000000000000000000000000000000000000815260040180806020018281038252602c8152602001806118b3602c913960400191505060405180910390fd5b600073ffffffffffffffffffffffffffffffffffffffff166002600084815260200190815260200160002060009054906101000a900473ffffffffffffffffffffffffffffffffffffffff1673ffffffffffffffffffffffffffffffffffffffff1614611468576002600083815260200190815260200160002060006101000a81549073ffffffffffffffffffffffffffffffffffffffff02191690555b600160008473ffffffffffffffffffffffffffffffffffffffff1673ffffffffffffffffffffffffffffffffffffffff1681526020019081526020016000205460018060008673ffffffffffffffffffffffffffffffffffffffff1673ffffffffffffffffffffffffffffffffffffffff16815260200190815260200160002054011161155d576040517f08c379a00000000000000000000000000000000000000000000000000000000081526004018080602001828103825260148152602001807f56696e746167654361723a204f766572666c6f7700000000000000000000000081525060200191505060405180910390fd5b60018060008673ffffffffffffffffffffffffffffffffffffffff1673ffffffffffffffffffffffffffffffffffffffff1681526020019081526020016000205403600160008673ffffffffffffffffffffffffffffffffffffffff1673ffffffffffffffffffffffffffffffffffffffff168152602001908152602001600020819055508260008084815260200190815260200160002060006101000a81548173ffffffffffffffffffffffffffffffffffffffff021916908373ffffffffffffffffffffffffffffffffffffffff16021790555060018060008573ffffffffffffffffffffffffffffffffffffffff1673ffffffffffffffffffffffffffffffffffffffff1681526020019081526020016000205401600160008573ffffffffffffffffffffffffffffffffffffffff1673ffffffffffffffffffffffffffffffffffffffff16815260200190815260200160002081905550600160075401600781905550818373ffffffffffffffffffffffffffffffffffffffff168573ffffffffffffffffffffffffffffffffffffffff167fddf252ad1be2c89b69c2b068fc378daa952ba7f163c4a11628f55a4df523b3ef60405160405180910390a450505050565b80600360003373ffffffffffffffffffffffffffffffffffffffff1673ffffffffffffffffffffffffffffffffffffffff16815260200190815260200160002060008473ffffffffffffffffffffffffffffffffffffffff1673ffffffffffffffffffffffffffffffffffffffff16815260200190815260200160002060006101000a81548160ff0219169083151502179055508173ffffffffffffffffffffffffffffffffffffffff163373ffffffffffffffffffffffffffffffffffffffff167f17307eab39ab6107e8899845ad3d59bd9653f200f220920489ca2b5937696c3183604051808215151515815260200191505060405180910390a3505056fe56696e746167654361723a204f6e6c79206f776e65722c206f70657261746f72206f7220617070726f766564206164647265737356696e746167654361723a204f6e6c79206f776e6572206f72206f70657261746f72206164647265737356696e746167654361723a207472616e73666572206973206e6f74206f776e6572206f662074686520746f6b656e56696e746167654361723a20496e76616c6964207472616e7366657220746f2061646472657373207a65726f56696e746167654361723a20496e76616c6964206164647265737320666f722056696e746167652043617256696e746167654361723a20617070726f76656420646966666572656e74206f66206f776e6572a26469706673582212204d1dec9d779ad71980d892de776859b2b061285fd29d2bef3005a5bd3281313164736f6c63430006000033",
  "source": "// SPDX-License-Identifier: MIT\n\npragma solidity ^0.6.0;\n\nimport \"./IERC721.sol\";\n\ncontract VintageCar is IERC721 {\n    // state variables\n    // token ->  owner\n    mapping(uint256 => address) private tokenOwner;\n    //  owner -> token value\n    mapping(address => uint256) private tokenOwnerBalance;\n    // approve token address\n    mapping(uint256 => address) private approvedToken;\n    // spender token address (true/false)\n    mapping(address => mapping(address => bool)) private operators;\n\n    address private owner;\n    string private _name;\n    string private _symbol;\n    uint256 private _tokenIncrement;\n\n    constructor(string memory name, string memory symbol) public {\n        owner = msg.sender;\n        _name = name;\n        _symbol = symbol;\n        _tokenIncrement = 0;\n    }\n\n    function name() public view returns (string memory) {\n        return _name;\n    }\n\n    function symbol() public view returns (string memory) {\n        return _symbol;\n    }\n    \n    function balanceOf(address _owner) public view override returns (uint256) {\n        return tokenOwnerBalance[_owner];\n    }\n\n    function ownerOf(uint256 _tokenId) public view override returns (address) {\n        address _owner = tokenOwner[_tokenId];\n        require(_owner != address(0), \"VintageCar: invalid token\");\n        return _owner;\n    }\n\n    function approve(address _approved, uint256 _tokenId) public override payable {\n         _approve(_approved, _tokenId);\n    }\n\n    function setApprovalForAll(address _operator, bool _approved) public override {\n        _setApprovalForAll(_operator, _approved);\n    }\n\n    function getApproved(uint256 _tokenId) public override view returns (address) {\n        require(tokenOwner[_tokenId] != address(0),  \"VintageCar: token is not valid\");\n        return  approvedToken[_tokenId];\n    }\n\n    function isApprovedForAll(address _owner, address _operator) public override view returns (bool) {\n        return  operators[_owner][_operator];\n    }\n\n    function transferFrom(address _from, address _to, uint256 _tokenId)  public override payable {\n        _transferFrom(_from, _to, _tokenId);\n    }\n\n    function _approve(address _approved, uint256 _tokenId) internal {\n        address _owner = tokenOwner[_tokenId];\n        require(_owner != address(0),  \"VintageCar: token is not valid\");\n        require(msg.sender == _owner || operators[_owner][msg.sender] , \"VintageCar: Only owner or operator address\");\n        require(_approved != _owner, \"VintageCar: approved different of owner\"); \n        approvedToken[_tokenId] = _approved;\n        emit Approval(_owner, _approved, _tokenId);\n    }\n\n    function _setApprovalForAll(address _operator, bool _approved) internal {\n       operators[msg.sender][_operator] = _approved;\n       emit ApprovalForAll(msg.sender, _operator, _approved);\n    }\n\n    function _transferFrom (address _from, address _to, uint256 _tokenId) internal {\n       address _owner = tokenOwner[_tokenId];\n        require(_owner != address(0), \"VintageCar: invalid token\");\n        require(msg.sender == _owner || \n                operators[_owner][msg.sender] || \n                approvedToken[_tokenId] == msg.sender, \n                \"VintageCar: Only owner, operator or approved address\");\n        require(_from == tokenOwner[_tokenId],  \"VintageCar: transfer is not owner of the token\");\n        require(_to != address(0), \"VintageCar: Invalid transfer to address zero\"); \n        \n        if (approvedToken[_tokenId] != address(0)) {\n            delete approvedToken[_tokenId];\n        }\n        require(tokenOwnerBalance[_to] + 1 > tokenOwnerBalance[_to], \"VintageCar: Overflow\");\n        tokenOwnerBalance[_from] = tokenOwnerBalance[_from] - 1;\n        tokenOwner[_tokenId] = _to;\n        tokenOwnerBalance[_to] = tokenOwnerBalance[_to] + 1;\n        \n        _tokenIncrement = _tokenIncrement + 1; \n        emit Transfer(_from, _to, _tokenId);\n    }\n\n    function tokenIncrement() public view returns (uint256) {\n        return _tokenIncrement;\n    }\n    \n    modifier onlyOwner() {\n        require(msg.sender == owner, \"VintageCar: Only owner\");\n        _;\n    }\n    \n    function mint(address _to, uint256 _tokenId) public onlyOwner {\n        require(_to != address(0), \"VintageCar: Invalid address for Vintage Car\");\n        require(tokenOwnerBalance[_to] + 1 > tokenOwnerBalance[_to], \"VintageCar: Overflow\");\n        tokenOwner[_tokenId] = _to;\n        tokenOwnerBalance[_to] = tokenOwnerBalance[_to] + 1;\n        _tokenIncrement = _tokenIncrement + 1; \n        emit Transfer(address(0), _to, _tokenId);\n    }\n    \n}",
  "sourcePath": "/home/wanja/smart-contracts/Smart-contracts-ERC721/contracts/VintageCar.sol",
  "compiler": {
    "name": "solc",
    "version": "0.6.0+commit.26b70077.Emscripten.clang"
  },
  "schemaVersion": "3.2.0",
  "updatedAt": "2020-06-08T19:32:20.552Z",
  "devdoc": {
    "methods": {}
  },
  "userdoc": {
    "methods": {}
  }
}